:100000000C9463000C948B000C948B000C948B006C
:100010000C948B000C948E030C948B000C948B002E
:100020000C948B000C948B000C948B000C948B0024
:100030000C948B000C94D8050C948B000C948B00C2
:100040000C94FF050C948B000C948B000C948B008B
:100050000C948B000C948B000C948B000C948B00F4
:100060000C948B000C948B000000000024002700EF
:100070002A0000000000250028002B0000000000DE
:1000800023002600290004040404040404040202DA
:100090000202020203030303030301020408102007
:1000A0004080010204081020010204081020000012
:1000B0000007000201000003040600000000000029
:1000C0000000F8032E0511241FBECFEFD8E0DEBFDD
:1000D000CDBF13E0A0E0B1E0E8E1F1E102C005909E
:1000E0000D92A634B107D9F718E0A6E4B3E001C039
:1000F0001D92AB35B107E1F710E0C6ECD0E004C0CB
:100100002297FE010E945307C23CD107C9F70E9403
:100110003F070C948A080C94000008950E94BC01CB
:100120000895E1E8F0E080E180831092800083E0B0
:1001300080934D0884ED90E390934C0880934B0896
:10014000909387008093860083E180838DE890E020
:1001500090934A088093490881E080936F00089546
:100160000E94B9000E94BB030E9405050E949100F5
:1001700008958EE061E00E94B9068FE061E00E9480
:10018000B90680E161E00E94B90681E161E00E9468
:10019000B90682E161E00E94B90683E161E00E9454
:1001A000B9068BE061E00E94B9068CE061E00E9434
:1001B000B9068DE061E00E94B9068BE060E00E9424
:1001C000DD068CE060E00E94DD068DE060E00E94CC
:1001D000DD06089581309105D1F48BE061E00E9445
:1001E000DD068CE061E00E94DD068DE061E00E94AA
:1001F000DD0686E990E00E94470686E990E00E94CD
:1002000047068BE060E00E94DD068DE037C082305B
:10021000910519F48BE061E06FC08330910571F4B2
:100220008CE061E00E94DD0686E990E00E944706CE
:1002300086E990E00E9447068CE07EC084309105FC
:1002400049F48DE061E00E94DD0686E990E00E94BD
:1002500047066DC085309105A9F48BE061E00E94EE
:10026000DD068CE061E00E94DD0686E990E00E94F8
:10027000470686E990E00E9447068BE060E00E9416
:10028000DD06DACF8630910571F48DE061E00E94E1
:10029000DD068BE061E00E94DD0686E990E00E94C9
:1002A00047068DE028C087309105A9F48CE061E015
:1002B0000E94DD068DE061E00E94DD0686E990E0A7
:1002C0000E94470686E990E00E9447068CE060E0C5
:1002D0000E94DD0630C088309105B1F48BE061E00A
:1002E0000E94DD068CE061E00E94DD0686E990E078
:1002F0000E9447068CE060E00E94DD0686E990E0FF
:100300000E9447068BE018C089309105C9F48DE042
:1003100061E00E94DD068BE061E00E94DD0686E977
:1003200090E00E9447068BE060E00E94DD0686E9CF
:1003300090E00E9447068DE060E00E94DD0608958F
:100340008A309105C1F48DE061E00E94DD068CE009
:1003500061E00E94DD0686E990E00E9447068CE09D
:1003600060E00E94DD0686E990E00E9447068DE08D
:1003700060E00E94DD060895CF93DF9380918601AF
:100380009091870101969093870180938601803434
:10039000910521F4109287011092860160918601E7
:1003A00070918701FB01EE0FFF1FEA5FFE4FC081D6
:1003B000D181209709F444C061708EE00E94DD066F
:1003C00060918601709187017595679561708FE0E6
:1003D0000E94DD0660918601709187017595679591
:1003E00075956795617080E10E94DD0660918601D8
:1003F0007091870123E0759567952A95E1F7617003
:1004000081E10E94DD06609186017091870194E090
:10041000759567959A95E1F7617082E10E94DD0616
:10042000609186017091870185E0759567958A9541
:10043000E1F7617083E10E94DD06CE010E94EA00CF
:10044000DF91CF91089560E00E940A05089584E04D
:100450000E941507009721F489E593E00E9423028A
:10046000089561E00E940A05089583E00E9415073F
:10047000009721F489E593E00E943102089562E03B
:100480000E940A05089582E00E941507009721F452
:1004900089E593E00E943F02089563E00E940A0507
:1004A000089585E00E941507009721F489E593E0FF
:1004B0000E944D02089580914E03882309F5E3E9D7
:1004C000F0E0E491F0E0EE0FFF1FEE58FF4F859152
:1004D000949180934A0390934B03E7EAF0E0E49110
:1004E000E0934C03E095E0934D038DE061E00E94C2
:1004F000B9068DE060E00E94DD0681E080934E0346
:100500000895DC01660F771F64587F4FFB018591CA
:1005100094918C9311969C93119713963C932E93E0
:10052000129781E090E002C0880F991F4A95E2F788
:1005300014968C93149715961C92159716961C92E8
:10054000169719961C921E9218970E945B020895A6
:10055000EF92FF920F931F93DF93CF9300D0CDB70D
:10056000DEB77C01890187E090E04A8369830E94BD
:100570004E07DC0111961C921E92698114966C93B1
:1005800014974A8112964C93129716961C921E92BB
:100590001597E62FF0E0E656FF4FE4911396EC93A3
:1005A00013970097C9F1F701208531852115310591
:1005B00021F49187808708C09C01F901858196818B
:1005C0000097D1F7B683A58311961C930E93809163
:1005D0006800F7019481892B809368002281338120
:1005E000F901808113969C911397892B8083433066
:1005F00011F0413039F4F701858113969C911397DE
:10060000892B85834150423038F4F7018681139657
:100610009C911397892B86830F900F90CF91DF9138
:100620001F910F91FF90EF900895582F9B01E82F95
:10063000F0E0EA57FF4FE491EE2391F06115710568
:1006400079F0E43019F0E0E0F0E002C0EFE4F3E02C
:10065000A081B1818C918783CF01652F0E94A80270
:100660000895FF920F931F93CF93DF938C01E09136
:100670004A03F0914B03808190914C03892329F028
:10068000808190914D03892302C08081892B8083D2
:1006900080914603F801F780F8268091460387830E
:1006A000C085D1852BC04B819F2D942321F1F8016A
:1006B0002581809146038223892361F486812091DC
:1006C0004603892390E030E02095309582239323E0
:1006D000009789F080914603842391E009F490E02B
:1006E000909348038C81809347038A8180934903C8
:1006F000E881F98109950D80DE81C02D209799F65A
:100700008BB3F801948189238BBB882309F0C0CF78
:10071000DF91CF911F910F91FF9008951F920F923B
:100720000FB60F9211242F933F934F935F936F93C4
:100730007F938F939F93AF93BF93EF93FF93E0913A
:100740004F03F09150038081809346038FE493E040
:100750000E943103FF91EF91BF91AF919F918F91D3
:100760007F916F915F914F913F912F910F900FBEAD
:100770000F901F90189584E060E00E94B90684E015
:1007800061E00E94DD0683E060E00E94B90683E03C
:1007900061E00E94DD0685E060E00E94B90685E028
:1007A00061E00E94DD0682E060E00E94B90682E01E
:1007B00061E00E94DD0684E067E272E042E050E022
:1007C0000E94150383E065E372E042E050E00E947E
:1007D000150385E061E572E042E050E00E941503F8
:1007E00082E063E472E042E050E00E941503089565
:1007F0008FE493E064E070E042E050E02DE630E00A
:100800000E94810208950895089508950895089515
:100810009F92AF92BF92CF92DF92EF92FF920F938F
:100820001F93CF93DF93EC0188E090E00E944E0786
:100830007C01DC0113961C921E92129799249394CA
:1008400014969C92149715961C92159716961C92C6
:10085000169717961C9217978CE293E08D939C93B2
:1008600088E090E00E944E076C0181E090E0F60184
:1008700093838283148295829682978282E393E0A7
:100880009183808389E090E00E944E078C0142E0D2
:10089000A42EB12CDC011396BC92AE921297149642
:1008A0001C92149715969C92159784E016968C933B
:1008B000169787E017968C93179788E393E0119625
:1008C0009C938E9318961C928BE090E00E944E07AA
:1008D000FC0183E090E0938382839482158283E01D
:1008E00086838AE087838EE393E0918380831086FA
:1008F000B286A186DE01AC5BBC4FED92FC92DE01BC
:10090000AA5BBC4FCD92DC92DE01A85BBC4F0D937D
:100910001C93DE01A65BBC4FED93FC9338E8E32EFD
:1009200031E0F32E29EAC22E26E0D22E00E010E0BC
:10093000D701ED91FD917D01EE55FE4FEE0FFF1FAA
:10094000EC0FFD1F40815181CE01B8010E94A60528
:10095000D601ED91FD916D01EE55FE4FEE0FFF1F9B
:10096000EC0FFD1F40815181CE01B8010E94AB0503
:100970000F5F1F4F003D1105D9F682E190E00E9404
:100980004E07592FE82FF92F84E090E0938382835C
:10099000148281E0858382E0868384E0878384E417
:1009A00093E09183808386E090E0918780879387AE
:1009B00082878AE090E09587848797878687118A67
:1009C000108ADE01A25BBC4FED93FC93DE01A45BB9
:1009D000BC4FEC9311965C93CE0166E670E04E2F0F
:1009E0000E94AB05CE0162E070E042E050E00E9460
:1009F0004C05DF91CF911F910F91FF90EF90DF9009
:100A0000CF90BF90AF909F90089589E593E00E94AA
:100A100008040895EF92FF92CF93DF93EC01FC015D
:100A2000EC5BFC4F4081518166E670E00E94AB05B3
:100A3000FE01E25BFC4F40815181CE0166E770E030
:100A40000E94AB05CE0162E070E042E050E00E94FF
:100A50004C05DF91CF91FF90EF9008950895EF92AC
:100A6000FF920F931F93CF93DF937C01EB018A01D9
:100A70000E94BF05882321F4C70180569E4F01C004
:100A8000C701BE01A8010E94AE05DF91CF911F9161
:100A90000F91FF90EF9008954F925F926F927F9227
:100AA0008F929F92AF92BF92CF92DF92EF92FF927E
:100AB0000F931F93CF93DF936C015B01742E652E10
:100AC000FC01E05CFC4F71836083FC01EE5BFC4F3A
:100AD0004083518326E8822E21E0922E00E010E030
:100AE00018C0C601B201A7010E942F058883198290
:100AF0000894E11CF11C6096C815D90591F70F5FA9
:100B00001F4F92E0892E912C8C0E9D1E08301105EE
:100B100061F0C301E92EF62CE801CC0FDD1FCA5F9E
:100B2000DE4F28014A0C5B1CDCCFDF91CF911F9177
:100B30000F91FF90EF90DF90CF90BF90AF909F907C
:100B40008F907F906F905F904F90089580569E4F4A
:100B50000E94D00508950E94D005089534E0660FE4
:100B6000771F3A95E1F7640F751F660F771F680FBF
:100B7000791FDB01ED91FC91119787810895E4E0E5
:100B8000660F771FEA95E1F7640F751F660F771FF1
:100B9000680F791FDB01ED91FC9111978681089513
:100BA000660F771F680F791FFB01518340830895FB
:100BB0001F920F920FB60F9211242F933F934F93D2
:100BC0005F936F937F938F939F93AF93BF93EF93B5
:100BD000FF93E0914908F0914A080995FF91EF9140
:100BE000BF91AF919F918F917F916F915F914F9145
:100BF0003F912F910F900FBE0F901F9018951F924D
:100C00000F920FB60F9211242F933F938F939F93C0
:100C1000AF93BF938091520890915308A0915408CC
:100C2000B0915508309156080196A11DB11D232F92
:100C30002D5F2D3720F02D570196A11DB11D20935A
:100C400056088093520890935308A0935408B09389
:100C5000550880914E0890914F08A0915008B0918E
:100C600051080196A11DB11D80934E0890934F0825
:100C7000A0935008B0935108BF91AF919F918F916D
:100C80003F912F910F900FBE0F901F9018950197D5
:100C900039F0880F991F880F991F02970197F1F774
:100CA0000895789484B5826084BD84B5816084BDE4
:100CB00085B5826085BD85B5816085BDEEE6F0E0D5
:100CC000808181608083E1E8F0E010828081826031
:100CD0008083808181608083E0E8F0E080818160B2
:100CE0008083E1EBF0E0808184608083E0EBF0E0E2
:100CF000808181608083EAE7F0E080818460808386
:100D0000808182608083808181608083808180682F
:100D100080831092C1000895833071F0843028F4EC
:100D20008130A1F0823021F514C08630B1F08730D7
:100D3000D1F08430E9F404C0809180008F7703C043
:100D4000809180008F7D80938000089584B58F7797
:100D500002C084B58F7D84BD08958091B0008F77E7
:100D60008093B00008958091B0008F7D8093B00093
:100D7000089590E0FC01E656FF4F2491FC01EA57EC
:100D8000FF4FE491EE23C1F0F0E0EE0FFF1FE859B2
:100D9000FF4F85919491DC01662341F49FB7F8944D
:100DA0008C91209582238C939FBF08959FB7F894D0
:100DB0008C91822B8C939FBF08950F931F93DF9389
:100DC000CF930F92CDB7DEB7282F30E0F901E2556F
:100DD000FF4F8491F901E656FF4F14912A573F4F78
:100DE000F90104910023D9F0882321F069830E943E
:100DF0008C066981E02FF0E0EE0FFF1FEE58FF4FE9
:100E000085919491DC019FB7F894662321F48C912D
:100E10001095812302C08C91812B8C939FBF0F90E2
:100E2000CF91DF911F910F9108950F931F93282F5A
:100E300030E0F901E255FF4F8491F901E656FF4F8A
:100E400004912A573F4FF9011491112391F08823FF
:100E500011F00E948C06E12FF0E0EE0FFF1FE45826
:100E6000FF4F85919491DC018C91802321E030E04B
:100E700011F420E030E0C9011F910F910895CF9344
:100E8000DF930E9451060E94B000C0E0D0E00E94B3
:100E90008E002097E1F30E940000F9CF0E945707CF
:100EA0000895EE0FFF1F0590F491E02D0994CF9364
:100EB000DF938230910510F482E090E0E0915908D0
:100EC000F0915A0840E050E020E030E026C0608118
:100ED000718168177907E0F06817790781F48281DA
:100EE00093812115310531F0D90113969C938E938E
:100EF00012972BC090935A088093590826C0411529
:100F0000510519F06417750718F4AB01E901DF0109
:100F10009F0172816381E72FF62F3097C1F641154B
:100F2000510501F1481B590B4430510580F41296CC
:100F30008D919C911397209719F09B838A8304C00D
:100F400090935A0880935908FD01329646C0FD01DE
:100F5000E40FF51F819391934250504011965C939A
:100F60004E933BC020915708309158082115310508
:100F700041F42091020130910301309358082093ED
:100F8000570820910401309105012115310541F4E4
:100F90002DB73EB74091000150910101241B350B44
:100FA000E0915708F0915808E217F307A0F42E1BC0
:100FB0003F0B2817390778F0AC014E5F5F4F2417BD
:100FC000350748F04E0F5F1F50935808409357085D
:100FD0008193919302C0E0E0F0E0CF01DF91CF91E7
:100FE0000895CF93DF93009709F491C0FC013297E5
:100FF000138212826091590870915A086115710527
:1010000081F420813181280F391F809157089091F8
:1010100058088217930799F5F0935808E0935708FA
:1010200076C0DB0180E090E002C0CD01D901AE17AF
:10103000BF0748F412962D913C9113972115310565
:10104000A1F7CD0121C0B383A283EF01499159914A
:101050009E01240F351FA217B30779F42D913C91FF
:101060001197240F351F2E5F3F4F31832083129637
:101070002D913C91139733832283009729F4F093A9
:101080005A08E093590843C0DC011396FC93EE9391
:1010900012974D915D91A40FB51FEA17FB0769F4F4
:1010A00020813181240F351F2E5F3F4FEC013983A2
:1010B0002883228133813B832A83E0E0F0E002C071
:1010C000FB01BC01DB0112968D919C911397009757
:1010D000B9F79B012E5F3F4F8D919C911197820F25
:1010E000931F40915708509158084817590779F4B1
:1010F000309729F410925A081092590802C01382AE
:101100001282225030403093580820935708DF91C4
:08111000CF910895F894FFCF80
:1011180020005B0800000700070000000200020032
:101128000000080008000700070000000200020095
:101138000000080008000000000000000000000097
:101148000000000000000A000A0000000600060077
:101158000000050005000A000A000000060006005D
:10116800000005000500000000000000000000006D
:10117800000000000000040004000000090009004D
:101188000000030003000400040000000900090037
:10119800000003000300010000000000000001003F
:1011A8000100010001000100010001000000000031
:1011B8000000000000000000000000000000010026
:1011C8000000000000000000000001000000000016
:1011D8000000000000000000000000000100010005
:1011E80000000100000001000000010001000000F3
:1011F80000000000000000000000010001000000E5
:1012080000000100000001000000000001000100D2
:1012180001000100010000000000010000000000C2
:1012280001000100000001000100000001000000B1
:1012380000000000010000000100010000000100A2
:101248000100000000000000010000000200000092
:101258000000000001000000010000000000000084
:101268000100000000000000010001000100000072
:101278000000000001000000010000000300000061
:101288000100000000000000010000000100000053
:101298000100010001000000010000000000000042
:1012A8000100010001000100010000000100000030
:1012B8000100000000000000010001000100010021
:1012C8000100000000000000010001000100000012
:1012D8000100000000000000000000000000000005
:1012E80001000000000000000000000000000000F5
:1012F80001000000000000000000000000000000E5
:1013080001000000000000000100010001000100D0
:1013180001000000000000000000000000000000C4
:1013280001000100010001000100000000000000B0
:10133800000000000000000000000000030400009E
:10134800000004040000000006040000000005047A
:0613580000000000070484
:00000001FF
