:100000000C9463000C948B000C948B000C948B006C
:100010000C948B000C94AA040C948B000C948B0011
:100020000C948B000C948B000C948B000C948B0024
:100030000C948B000C94B0050C948B000C948B00EA
:100040000C94D7050C948B000C948B000C948B00B3
:100050000C948B000C948B000C948B000C948B00F4
:100060000C948B000C948B00000000070002010030
:100070000003040600000000000000000102040864
:100080001020408001020408102001020408102002
:10009000040404040404040402020202020203032E
:1000A00003030303000000002300260029000000D2
:1000B0000000250028002B0000000000240027007D
:1000C0002A006E03130511241FBECFEFD8E0DEBF58
:1000D000CDBF13E0A0E0B1E0E2E2F1E102C00590A3
:1000E0000D92AC32B107D9F714E0ACE2B3E001C035
:1000F0001D92AD3FB107E1F710E0C6ECD0E004C0BF
:100100002297FE010E943907C23CD107C9F70E941D
:100110002A070C948F080C94000008950C94B201E7
:10012000E1E8F0E080E180831092800083E080933A
:10013000EB0484ED90E39093ED048093EC049093B2
:1001400087008093860083E180838DE890E0909320
:10015000EF048093EE0481E080936F0008950E9485
:10016000B7000E94D7040E944F020C94900061E0F7
:100170008EE00E94900661E08FE00E94900661E0B0
:1001800080E10E94900661E081E10E94900661E0BA
:1001900082E10E94900661E083E10E94900661E0A6
:1001A0008BE00E94900661E08CE00E94900661E086
:1001B0008DE00E94900660E08BE00E94C80660E03F
:1001C0008CE00E94C80660E08DE00C94C806813087
:1001D0009105D9F461E08BE00E94C80661E08CE0F3
:1001E0000E94C80661E08DE00E94C80686E990E0A2
:1001F0000E94210686E990E00E94210660E08BE0E3
:100200000E94C80660E08DE037C08230910519F485
:1002100061E08BE071C08330910569F461E08CE0AE
:100220000E94C80686E990E00E94210686E990E0D7
:100230000E94210623C08430910549F461E08DE0DD
:100240000E94C80686E990E00E94210682C085309F
:100250009105B9F461E08BE00E94C80661E08CE092
:100260000E94C80686E990E00E94210686E990E097
:100270000E94210660E08BE00E94C80660E08CE0EE
:100280006EC08630910579F461E08DE00E94C80669
:1002900061E08BE00E94C80686E990E00E9421069A
:1002A00060E08DE029C087309105A9F461E08CE021
:1002B0000E94C80661E08DE00E94C80686E990E0D1
:1002C0000E94210686E990E00E94210660E08CE011
:1002D0000E94C80642C088309105B9F461E08BE005
:1002E0000E94C80661E08CE00E94C80686E990E0A2
:1002F0000E94210660E08CE00E94C80686E990E03A
:100300000E94210660E08BE02AC08930910579F4D3
:1003100061E08DE00E94C80661E08BE00E94C806A3
:1003200086E990E00E94210660E08BE010C00A9709
:10033000C1F461E08DE00E94C80661E08CE00E949B
:10034000C80686E990E00E94210660E08CE00E94E9
:10035000C80686E990E00E94210660E08DE00C94DA
:10036000C8060895CF93DF9380910601909107010D
:1003700001968034910529F090930701809306013E
:1003800004C010920701109206016091060170915D
:100390000701FB01EE0FFF1FE85FFE4FC081D18117
:1003A000209781F1617077278EE00E94C8066091E6
:1003B0000601669561708FE00E94C8066091060193
:1003C00062FB662760F980E10E94C8066091060121
:1003D00063FB662760F981E10E94C806609106010F
:1003E0006295617082E10E94C8066091060165FB1A
:1003F000662760F983E10E94C806CE01DF91CF91A4
:100400000C94E700DF91CF910895AF92BF92CF9205
:10041000DF92EF92FF920F931F93CF93DF93EB0145
:1004200024E0CC0FDD1F2A95E1F7C80FD91FCC0FB0
:10043000DD1F00E010E0C457DE4F1AC0F701EE0FD9
:10044000FF1FEA0DFB1D808191810E942E05F601A0
:10045000EE0DFF1D9183808380E1E80EF11C80E8A2
:10046000E816F10459F70E5F1F4F0031110561F0D6
:100470005E01A00EB11EE12CF12C88E0C82E81E0B7
:10048000D82EC00ED11EDACFDF91CF911F910F91E0
:10049000FF90EF90DF90CF90BF90AF90089582E0F3
:1004A00090E09093330380933203909331038093D1
:1004B000300362E070E00C940502FB0144E0EE0FB3
:1004C000FF1F4A95E1F7E80FF91FEE0FFF1FE457F2
:1004D000FE4F808191818230910559F48BE090E04C
:1004E00090934102809340028AE090E09183808360
:1004F00008950A9751F482E090E09183808383E02D
:1005000090E09093410280934002089580912E03E1
:1005100090912F03843091052CF4109233031092A4
:1005200032030BC08D3091051CF088E090E001C0D3
:100530000497909333038093320380912C0390911E
:100540002D03843091052CF4109231031092300366
:1005500008958A3091051CF085E090E001C0049771
:10056000909331038093300308958F929F92AF92BE
:10057000BF92CF92DF92EF92FF920F931F93CF9390
:10058000DF93E0902E03F0902F03C0902C03D090C7
:100590002D03009719F4E601219615C081309105CD
:1005A00019F4E60121970FC08230910521F48701EB
:1005B0000150110905C0039729F487010F5F1F4FF0
:1005C000E60102C0E60187015E01E4E0AA0CBB1C63
:1005D000EA95E1F7A00EB11EAA0CBB1CACE88A2E6E
:1005E000A1E09A2E8A0C9B1CF401808191810E94CB
:1005F0006905892B09F455C0BE01C8010E945D023E
:10060000F501E85CFC4F20813181F401408151818A
:10061000C60164E0880F991F6A95E1F78E0D9F1D52
:10062000880F991FFC01E85CFC4F609136037091C4
:10063000370371836083FC01E457FE4F60913403FC
:100640007091350371836083509335034093340375
:10065000309337032093360389E090E0F4019183CF
:10066000808310932F0300932E03D0932D03C09308
:100670002C030E94860260913003709131038091B7
:10068000320390913303DF91CF911F910F91FF902F
:10069000EF90DF90CF90BF90AF909F908F900C9491
:1006A0000502DF91CF911F910F91FF90EF90DF90A6
:1006B000CF90BF90AF909F908F90089580E090E092
:1006C0000C94B50281E090E00C94B50283E090E0D8
:1006D0000C94B50282E090E00C94B50280918A01FE
:1006E00090918B0190932F0380932E03809188012A
:1006F0009091890190932D0380932C03089582E0BB
:100700000E94FF06892B11F40C946603089585E07E
:100710000E94FF06892B11F40C946A03089583E06C
:100720000E94FF06892B11F40C946203089584E063
:100730000E94FF06892B11F40C945E0308958091AA
:10074000E204811121C0EDE9F0E0E491F0E0EE0F68
:10075000FF1FE255FF4F859194918093E50490939C
:10076000E604E9E8F0E0E491E093E404E095E09346
:10077000E30461E08DE00E94900660E08DE00E945D
:10078000C80681E08093E2040895EF92FF920F93F0
:100790001F93CF93DF9300D0CDB7DEB77C018901E3
:1007A00087E090E04A8369830E942807DC01119664
:1007B0001C921E92698114966C9314974A8112962A
:1007C0004C93129716961C921E921597E62FF0E006
:1007D000E458FF4FE4911396EC9313970097C1F1FF
:1007E000F701208531852115310521F49187808716
:1007F00008C09C01F901858196810097D1F7B683E5
:10080000A58311961C930E9380916800F701948143
:10081000892B8093680022813381F90180811396AE
:100820009C911397892B8083433011F0413039F428
:10083000F701858113969C911397892B85834150ED
:10084000423030F4F701868113969C91892B868380
:100850000F900F90DF91CF911F910F91FF90EF902C
:1008600008959B01E82FF0E0E057FF4FE491EE235D
:1008700091F06115710579F0E43019F0E0E0F0E0F5
:1008800002C0E8EDF4E0A081B1819C919783682FCC
:10089000CF010C94C5030895FF920F931F93CF933C
:1008A000DF938C01E091E504F091E6048081909162
:1008B000E404892329F080819091E304892302C014
:1008C0008081892B80838091EA04F801F780F826E3
:1008D0008091EA048783C085D1851AC04B819F2D02
:1008E000942399F0F80125818091EA0482238923D9
:1008F000C9F486812091EA04892390E030E02095B4
:10090000309582239323892B69F40D80DE81C02DDD
:10091000209721F78BB3F801948189238BBB811138
:10092000D2CF12C08091EA04842391E009F490E0D0
:100930009093E8048C818093E9048A818093E70492
:10094000E881F9810995E1CFDF91CF911F910F9156
:10095000FF9008951F920F920FB60F9211242F93BC
:100960003F934F935F936F937F938F939F93AF9337
:10097000BF93EF93FF93E091D804F091D904808165
:100980008093EA0488ED94E00E944C04FF91EF917B
:10099000BF91AF919F918F917F916F915F914F9197
:1009A0003F912F910F900FBE0F901F90189560E010
:1009B00084E00E94900661E084E00E94C80660E046
:1009C00083E00E94900661E083E00E94C80660E038
:1009D00085E00E94900661E085E00E94C80660E024
:1009E00082E00E94900661E082E00E94C80642E038
:1009F00050E067E973E084E00E94310442E050E097
:100A00006FE873E083E00E94310442E050E067E861
:100A100073E085E00E94310442E050E06FE773E04C
:100A200082E00C943104ECEAF0E085919491E8EDD9
:100A3000F4E0808391838DE690E09093DB048093D3
:100A4000DA0484E08093DC041092DD041092DE046A
:100A50001092E1041092E0040C949F030097A9F116
:100A600081309105D1F082309105D1F0833091052C
:100A7000D1F085309105D1F086309105D1F08730E5
:100A80009105D1F088309105D1F089309105D1F0F0
:100A90000A97D9F428E030E01AC021E030E017C00E
:100AA0002AE030E014C027E030E011C025E030E05B
:100AB0000EC022E030E00BC023E030E008C029E0A7
:100AC00030E005C024E030E002C020E030E0C901A1
:100AD0000895CF93DF93CDB7DEB762970FB6F89442
:100AE000DEBF0FBECDBFFE01319622E1DF011D92B8
:100AF0002A95E9F722E030E03C832B8325E030E0C3
:100B00003E832D8324E030E038872F8328E030E0D7
:100B10003A87298727E030E03C872B872AE030E0BE
:100B20003E872D872BE030E0388B2F879E012D5E8E
:100B30003F4F419151914817590731F0E217F307A0
:100B4000C1F720E030E002C021E030E0C901629648
:100B50000FB6F894DEBF0FBECDBFDF91CF910895E1
:100B60001F920F920FB60F9211242F933F934F9322
:100B70005F936F937F938F939F93AF93BF93EF9305
:100B8000FF93E091EE04F091EF040995FF91EF914E
:100B9000BF91AF919F918F917F916F915F914F9195
:100BA0003F912F910F900FBE0F901F9018951F929D
:100BB0000F920FB60F9211242F933F938F939F9311
:100BC000AF93BF938091F0049091F104A091F2044F
:100BD000B091F3043091F804232F2D5F2D3720F4CA
:100BE0000196A11DB11D05C0232F2A570296A11DF4
:100BF000B11D2093F8048093F0049093F104A09326
:100C0000F204B093F3048091F4049091F504A09160
:100C1000F604B091F7040196A11DB11D8093F40470
:100C20009093F504A093F604B093F704BF91AF91AD
:100C30009F918F913F912F910F900FBE0F901F901A
:100C40001895019739F0880F991F880F991F0297FF
:100C50000197F1F70895789484B5826084BD84B5D6
:100C6000816084BD85B5826085BD85B5816085BDA7
:100C7000EEE6F0E0808181608083E1E8F0E01082C0
:100C8000808182608083808181608083E0E8F0E001
:100C9000808181608083E1EBF0E0808184608083EB
:100CA000E0EBF0E0808181608083EAE7F0E0808122
:100CB0008460808380818260808380818160808382
:100CC0008081806880831092C1000895833069F02C
:100CD00028F48130A1F0823011F514C08630B1F0D3
:100CE0008730C1F08430D9F404C0809180008F77C0
:100CF00003C0809180008F7D80938000089584B52B
:100D00008F7702C084B58F7D84BD08958091B00037
:100D10008F7703C08091B0008F7D8093B0000895DD
:100D2000CF93DF9390E0FC01E458FF4F4491FC0126
:100D3000E057FF4F8491882341F190E0880F991F7D
:100D4000FC01E854FF4F25913491D90182559F4F02
:100D5000FC0185919491C82FD92F9FB7F8948C915D
:100D6000611106C0409584238C938881842308C038
:100D7000623041F4242F209582238C938881842B28
:100D8000888302C0842B8C939FBFDF91CF910895FD
:100D90000F931F93CF93DF931F92CDB7DEB7282F0A
:100DA00030E0F901E859FF4F8491F901E458FF4F11
:100DB0001491F901E057FF4F04910023D1F08823EB
:100DC00021F069830E9466066981E02FF0E0EE0F52
:100DD000FF1FE255FF4F85919491DC019FB7F89476
:100DE0008C91611103C01095812301C0812B8C93DC
:100DF0009FBF0F90DF91CF911F910F910895CF93D7
:100E0000DF93282F30E0F901E859FF4F8491F90171
:100E1000E458FF4FD491F901E057FF4FC491CC2320
:100E200089F081110E946606EC2FF0E0EE0FFF1FA3
:100E3000EC55FF4F85919491DC018C918D2321E03D
:100E400030E011F420E030E0C901DF91CF91089546
:100E50000C943D070E942B060E94AF00C0E0D0E03A
:100E60000E948E002097E1F30E940000F9CFEE0F60
:100E7000FF1F0590F491E02D09940F931F93CF93DA
:100E8000DF938230910510F482E090E0E091FB0462
:100E9000F091FC0420E030E0C0E0D0E023C04081CD
:100EA000518148175907A8F04817590761F4828102
:100EB0009381209719F09B838A832EC09093FC0422
:100EC0008093FB0429C02115310529F042175307EF
:100ED00010F0A90102C0BE01DF0102811381EF0100
:100EE0009A01F8013097D9F62115310509F1281B2F
:100EF000390B2430310590F412968D919C91139703
:100F00006115710521F0FB019383828304C09093E6
:100F1000FC048093FB04FD01329644C0FD01E20F06
:100F2000F31F81939193225031092D933C933AC042
:100F30002091F9043091FA04232B41F4209102010D
:100F4000309103013093FA042093F90420910001B9
:100F5000309101012115310541F42DB73EB7409183
:100F6000040150910501241B350BE091F904F09127
:100F7000FA04E217F307A0F42E1B3F0B28173907DA
:100F800078F0AC014E5F5F4F2417350748F04E0FE5
:100F90005F1F5093FA044093F9048193919302C028
:100FA000E0E0F0E0CF01DF91CF911F910F91089524
:100FB000EF92FF920F931F93CF93DF93009709F463
:100FC0008EC0DC01129713961C921E921297E0902D
:100FD000FB04F090FC04E114F10489F42D913C91A0
:100FE0001197280F391F8091F9049091FA04821704
:100FF000930789F5B093FA04A093F90470C0E70150
:1010000020E030E001C0EA01CA17DB0738F44A816A
:101010005B819E0141155105B1F722C0AC014250E0
:101020005109FA01D383C28300811181BC01600F91
:10103000711F6C177D0761F468817981600F711FE2
:101040006E5F7F4F718360836A817B81738362836C
:101050002115310529F4B093FC04A093FB043FC093
:10106000F901B383A283E90149915991C40FD51FB6
:10107000AC17BD0771F4DC019E918E91840F951F12
:1010800002969183808312968D919C9113979383FE
:101090008283A0E0B0E002C0D7017C01F701828129
:1010A00093810097C9F7C701029620813181820F91
:1010B000931F2091F9043091FA042817390779F425
:1010C000109729F41092FC041092FB0404C01396AC
:1010D0001C921E921297F092FA04E092F904CDB796
:1010E000DEB7E6E00C9480082A88398848885F8457
:1010F0006E847D848C849B84AA84B984C884DF80B8
:10110000EE80FD800C811B81AA81B981CE0FD11D9B
:101110000FB6F894DEBF0FBECDBFED010895F89471
:02112000FFCFFF
:101122000000FD042000010007000700000002008B
:10113200020000000800080007000700000002008B
:10114200020000000800080000000000000000008B
:1011520000000000000000000A000A000000060073
:1011620006000000050005000A000A000000060053
:10117200060000000500050000000000000000005D
:10118200000000000000000004000400000009004C
:10119200090000000300030004000400000009002D
:1011A2000900000003000300060006000000000022
:1011B2000000010001000100010001000100010026
:1011C200000000000000000000000000000000001D
:1011D200000001000000000000000000000001000B
:1011E20000000000000000000000000000000000FD
:1011F20001000100000001000000010000000100E8
:1012020001000000000000000000000000000100DA
:1012120001000000000001000000010000000000C9
:1012220001000100010001000100000000000100B6
:1012320000000000010001000000010001000000A8
:101242000100000000000000010000000100010098
:101252000000010001000000000000000100000089
:10126200030000000500000001000000010006006C
:101272000000000001000000090000000100010060
:101282000100000000000000010000000100000059
:101292000200000001000000000000000100000048
:1012A2000100000001000100010000000100000037
:1012B2000000000001000100010001000100000027
:1012C2000100000001000000000000000100010018
:1012D20001000100010000000800000001000100FF
:1012E20001000000010000000000000000000000FA
:1012F20000000000010000000000000000000000EB
:1013020000000000010000000000000000000000DA
:1013120000000000010000000700000001000100C1
:1013220001000100010000000000000000000000B8
:1013320000000000010001000100010001000000A6
:0C1342000000000000000000000000009F
:00000001FF
